:100000000C9414000C941E000C941E000C941E0002
:100010000C941E000C941E000C941E000C941E00E8
:100020000C941E000C941E0011241FBECFEFD0E1D3
:10003000DEBFCDBF0E9423000C945E000C94000034
:10004000C098C198089587B3836087BBC09AC19A4E
:10005000C09AC1982FEF89E698E1215080409040E6
:10006000E1F700C000000E9420002FEF89E698E130
:10007000215080409040E1F700C00000C098C19A34
:100080002FEF83ED90E3215080409040E1F700C0D6
:1000900000000E9420002FEF89E698E12150804067
:1000A0009040E1F700C000002FEF81EE94E0215076
:1000B00080409040E1F700C00000CACFF894FFCF25
:00000001FF
